S01C000051616469725F42616368656C6F726172626569742E7372656321
S11300000C9434000C9451000C9451000C94510045
S11300100C9451000C9451000C9451000C94510018
S11300200C9451000C9451000C9451000C94E70171
S11300300C9451000C9451000C94B1010C94510097
S11300400C9451000C9451000C9451000C945100E8
S11300500C9451000C9451000C9451000C945100D8
S11300600C9451000C94510011241FBECFEFD8E022
S1130070DEBFCDBF11E0A0E0B1E0E2ECF7E002C0EA
S113008005900D92AC30B107D9F721E0ACE0B1E0B6
S113009001C01D92AE31B207E1F70E9458000C94E2
S11300A0DF030C9400000E94A4010E94D80108956B
S11300B00E94530023EC35EF48E25FE360910801AE
S11300C07091090180910A0190910B010E948002B4
S11300D00E94F202DC01CB010196A11DB11D8093A7
S11300E01A0190931B01A0931C01B0931D0123ECF2
S11300F035EF48E25FE3609104017091050180915E
S11301000601909107010E9480020E94F202DC0124
S1130110CB010196A11DB11D809316019093170187
S1130120A0931801B09319018AB18C668AB900E0D2
S113013010E0F3C0C701B6010E94F902C62F20E007
S113014030E0A901C701B6010E94DA0318160CF0C9
S1130150E2C0C17009F076C020E030E040E85FE31F
S1130160609100017091010180910201909103015D
S11301700E940E02609300017093010180930201BA
S11301809093030180911A0190911B01A0911C018D
S1130190B0911D01181619061A061B0634F12BC05E
S11301A040911A0150911B0160911C0170911D0135
S11301B0415051096109710940931A0150931B017F
S11301C060931C0170931D012BB12F7D2BB92BB1B2
S11301D024602BB92BB12B7F2BB9EFE0F7E23197D9
S11301E0F1F700C00000019602C080E090E0823088
S11301F09105B4F21CC0BB23D4F40196A11DB11D1A
S113020080931A0190931B01A0931C01B0931D01CC
S11302108BB180628BB98BB184608BB98BB18B7FCE
S11302208BB98FE097E20197F1F700C0000060916D
S113023000017091010180910201909103010E94DB
S1130240F902C62FC13009F084CF20E030E040E845
S11302505FE360910001709101018091020190912E
S113026003010E940E0260930001709301018093C8
S11302700201909303018091160190911701A091BE
S11302801801B0911901181619061A061B06DCF498
S11302900197A109B1098093160190931701A093C6
S11302A01801B09319018BB18F7B8BB98BB1886026
S11302B08BB98BB1877F8BB9EFE1FEE43197F1F70E
S11302C000C000001CC0BB23D4F40196A11DB11DC5
S11302D08093160190931701A0931801B09319010C
S11302E08BB180648BB98BB188608BB98BB1877FFC
S11302F08BB98FE19EE40197F1F700C00000609193
S113030000017091010180910201909103010E940A
S1130310F902C62F1ECF0F5F1F4FB801012E000C2C
S1130320880B990B0E942A03C0900001D090010110
S1130330E0900201F0900301A70196010E947B0264
S113034088230CF4F7CEF3CE84B5826084BD85B5E2
S1130350856085BD8CE987BD82E080936E007894CA
S113036008951F920F920FB60F9211248F9381E07C
S11303708093100180910E018F5F80930E018A306B
S113038089F410920E0181E080930F0180910C0199
S11303908F5F80930C01853029F410920C0181E069
S11303A080930D018F910F900FBE0F901F901895A1
S11303B01092800082E0809381002CE930E0309339
S11303C089002093880080936F00789408951F9289
S11303D00F920FB60F9211248F9381E08093150131
S11303E0809112018F5F809312018A3089F41092F8
S11303F0120181E080931401809111018F5F809339
S113040011018A3029F41092110181E080931301C3
S11304108F910F900FBE0F901F9018955058BB27C7
S1130420AA270E9426020C94A0030E94920338F08B
S11304300E94990320F039F49F3F19F426F40C9498
S11304408F030EF4E095E7FB0C948903E92F0E94D7
S1130450B10358F3BA17620773078407950720F0AE
S113046079F4A6F50C94D3030EF4E0950B2EBA2F71
S1130470A02D0B01B90190010C01CA01A0011124A6
S1130480FF27591B99F0593F50F4503E68F11A1652
S1130490F040A22F232F342F4427585FF3CF4695E3
S11304A037952795A795F0405395C9F77EF41F1605
S11304B0BA0B620B730B840BBAF09150A1F0FF0FCF
S11304C0BB1F661F771F881FC2F70EC0BA0F621FBB
S11304D0731F841F48F4879577956795B795F795AB
S11304E09E3F08F0B0CF9395880F08F09927EE0F40
S11304F09795879508950E94650308F481E008950F
S11305000E9494020C94A0030E94990358F00E9444
S1130510920340F029F45F3F29F00C9489035111B0
S11305200C94D4030C948F030E94B10368F39923B1
S1130530B1F3552391F3951B550BBB27AA276217DB
S11305407307840738F09F5F5F4F220F331F441FE8
S1130550AA1FA9F335D00E2E3AF0E0E832D091501C
S11305605040E695001CCAF72BD0FE2F29D0660F09
S1130570771F881FBB1F261737074807AB07B0E84C
S113058009F0BB0B802DBF01FF2793585F4F3AF052
S11305909E3F510578F00C9489030C94D4035F3F7B
S11305A0E4F3983ED4F3869577956795B795F795D8
S11305B09F5FC9F7880F911D9695879597F90895C0
S11305C0E1E0660F771F881FBB1F6217730784075C
S11305D0BA0720F0621B730B840BBA0BEE1F88F76B
S11305E0E09508950E94F9026894B1110C94D40323
S11305F008950E94B90388F09F5798F0B92F99275E
S1130600B751B0F0E1F0660F771F881F991F1AF0F9
S1130610BA95C9F714C0B13091F00E94D303B1E088
S113062008950C94D303672F782F8827B85F39F087
S1130630B93FCCF3869577956795B395D9F73EF492
S113064090958095709561957F4F8F4F9F4F08953A
S1130650E89409C097FB3EF4909580957095619558
S11306607F4F8F4F9F4F9923A9F0F92F96E9BB270E
S11306709395F695879577956795B795F111F8CF8A
S1130680FAF4BB0F11F460FF1BC06F5F7F4F8F4FF5
S11306909F4F16C0882311F096E911C0772321F0EB
S11306A09EE8872F762F05C0662371F096E8862F83
S11306B070E060E02AF09A95660F771F881FDAF7DA
S11306C0880F9695879597F90895990F0008550F07
S11306D0AA0BE0E8FEEF16161706E807F907C0F0C4
S11306E012161306E407F50798F0621B730B840BCC
S11306F0950B39F40A2661F0232B242B252B21F4A6
S113070008950A2609F4A140A6958FEF811D811D45
S1130710089597F99F6780E870E060E008959FEF7F
S113072080EC089500240A94161617061806090684
S1130730089500240A941216130614060506089553
S1130740092E0394000C11F4882352F0BB0F40F4DB
S1130750BF2B11F460FF04C06F5F7F4F8F4F9F4F1B
S1130760089557FD9058440F551F59F05F3F71F09D
S11307704795880F97FB991F61F09F3F79F0879504
S11307800895121613061406551FF2CF4695F1DF8D
S113079008C0161617061806991FF1CF869571051D
S11307A0610508940895E894BB2766277727CB0151
S11307B097F908950E94650308F48FEF0895F8945B
S10507C0FFCF65
S10F07C20000C84200000443000084430F
S9030000FC
