:100000000C9434000C9451000C9451000C94510049
:100010000C9451000C9451000C9451000C9451001C
:100020000C9451000C9451000C9451000C9451000C
:100030000C9451000C9451000C9451000C945100FC
:100040000C9451000C9451000C9451000C945100EC
:100050000C9451000C9451000C9451000C945100DC
:100060000C9451000C94510011241FBECFEFD8E026
:10007000DEBFCDBF11E0A0E0B1E0E0EBF4E002C0F4
:1000800005900D92A830B107D9F721E0A8E0B1E0C2
:1000900001C01D92A031B207E1F70E9413010C9438
:1000A00056020C9400000F931F938B019C018BB19F
:1000B0008F7D8BB940E050E0BA0110C08BB18460F5
:1000C0008BB98BB18B7F8BB98FE99FE00197F1F7EB
:1000D00000C000004F5F5F4F6F4F7F4F40175107C9
:1000E000620773075CF360E070E0CB011F910F9132
:1000F00008950F931F938B019C018BB180628BB984
:1001000040E050E0BA0110C08BB184608BB98BB174
:100110008B7F8BB98FE99FE00197F1F700C000005A
:100120004F5F5F4F6F4F7F4F401751076207730755
:100130005CF360E070E0CB011F910F9108951616FB
:100140001706180619061CF40E94530008959923F7
:100150004CF490958095709561957F4F8F4F9F4F90
:100160000E94790008950F931F938B019C018BB11E
:100170008F7B8BB940E050E0BA0110C08BB1886032
:100180008BB98BB1877F8BB98FE99FE00197F1F72E
:1001900000C000004F5F5F4F6F4F7F4F4017510708
:1001A000620773075CF360E070E0CB011F910F9171
:1001B00008950F931F938B019C018BB180648BB9C1
:1001C00040E050E0BA0110C08BB188608BB98BB1B0
:1001D000877F8BB98FE99FE00197F1F700C000009E
:1001E0004F5F5F4F6F4F7F4F401751076207730795
:1001F0005CF360E070E0CB011F910F91089516163B
:100200001706180619061CF40E94B30008959923D6
:100210004CF490958095709561957F4F8F4F9F4FCF
:100220000E94D900089523EC35EF48E25FE3609126
:1002300000017091010180910201909103010E94DF
:100240005D010E94CF0160930801709309018093C2
:100250000A0190930B0123EC35EF48E25FE36091D4
:1002600004017091050180910601909107010E949F
:100270005D010E94CF0160930C0170930D0180938A
:100280000E0190930F018AB18C668AB960910C01BE
:1002900070910D0180910E0190910F010E949F00BD
:1002A000609108017091090180910A0190910B0100
:1002B0000E94FF0080E090E008950E9471010C947C
:1002C0001C020E94150258F00E940E0240F029F410
:1002D0005F3F29F00C94050251110C9450020C94CC
:1002E0000B020E942D0268F39923B1F3552391F379
:1002F000951B550BBB27AA2762177307840738F095
:100300009F5F5F4F220F331F441FAA1FA9F335D0F1
:100310000E2E3AF0E0E832D091505040E695001CA5
:10032000CAF72BD0FE2F29D0660F771F881FBB1F5F
:10033000261737074807AB07B0E809F0BB0B802D3D
:10034000BF01FF2793585F4F3AF09E3F510578F069
:100350000C9405020C9450025F3FE4F3983ED4F3F2
:10036000869577956795B795F7959F5FC9F7880F3D
:10037000911D9695879597F90895E1E0660F771F8F
:10038000881FBB1F621773078407BA0720F0621B20
:10039000730B840BBA0BEE1F88F7E09508950E944B
:1003A000D6016894B1110C94500208950E94350250
:1003B00088F09F5798F0B92F9927B751B0F0E1F026
:1003C000660F771F881F991F1AF0BA95C9F714C0D6
:1003D000B13091F00E944F02B1E008950C944F02A9
:1003E000672F782F8827B85F39F0B93FCCF386950F
:1003F00077956795B395D9F73EF49095809570956C
:1004000061957F4F8F4F9F4F089597F99F6780E8C1
:1004100070E060E008959FEF80EC089500240A9456
:100420001616170618060906089500240A941216CF
:100430001306140605060895092E0394000C11F402
:10044000882352F0BB0F40F4BF2B11F460FF04C0AF
:100450006F5F7F4F8F4F9F4F089557FD9058440F08
:10046000551F59F05F3F71F04795880F97FB991F13
:1004700061F09F3F79F087950895121613061406D0
:10048000551FF2CF4695F1DF08C01616170618065D
:10049000991FF1CF86957105610508940895E89438
:1004A000BB2766277727CB0197F90895F894FFCFEC
:0804B0000000A5C40000A5C472
:00000001FF
