:100000000C9434000C9451000C9451000C94510049
:100010000C9451000C9451000C9451000C9451001C
:100020000C9451000C9451000C9451000C948D01CF
:100030000C9451000C9451000C9457010C945100F5
:100040000C9451000C9451000C9451000C945100EC
:100050000C9451000C9451000C9451000C945100DC
:100060000C9451000C94510011241FBECFEFD8E026
:10007000DEBFCDBF11E0A0E0B1E0E8E3F6E002C0F2
:1000800005900D92AA30B107D9F721E0AAE0B1E0BE
:1000900001C01D92AC31B207E1F70E9458000C94E8
:1000A0001A030C9400000E944A010E947E010895E8
:1000B0000E94530023EC35EF48E25FE360910101B9
:1000C0007091020180910301909104010E9421022C
:1000D00020E030E040E85FE30E94B5010E94930217
:1000E000609314017093150180931601909317018A
:1000F0008091050190910601A0910701B09108013E
:10010000BC01CD01905823EC35EF48E25FE30E943B
:10011000210220E030E040E85FE30E94B5010E9448
:100120009302609318017093190180931A019093C0
:100130001B018AB18C668AB920E030E0A2C0882316
:1001400009F49DC0817009F04BC08091000181507D
:10015000809300018091180190911901A0911A01DA
:10016000B0911B01181619061A061B06DCF401973C
:10017000A109B1098093180190931901A0931A0164
:10018000B0931B018BB18F7D8BB98BB184608BB920
:100190008BB18B7F8BB98FE99FE00197F1F700C09E
:1001A00000001CC0BB23D4F40196A11DB11D809397
:1001B000180190931901A0931A01B0931B018BB100
:1001C00080628BB98BB184608BB98BB18B7F8BB91B
:1001D0008FE99FE00197F1F700C0000080910001D6
:1001E000813009F0AFCF80910001815080930001F0
:1001F0008091140190911501A0911601B091170101
:10020000181619061A061B06DCF40197A109B10994
:100210008093140190931501A0931601B0931701D8
:100220008BB18F7B8BB98BB188608BB98BB1877F9A
:100230008BB98FE99FE00197F1F700C000001CC067
:10024000BB23D4F40196A11DB11D8093140190939A
:100250001501A0931601B09317018BB180648BB97F
:100260008BB188608BB98BB1877F8BB98FE99FE0A9
:100270000197F1F700C000008091000163CF2F5F6C
:100280003F4F80910001482F50E0241735070CF4B0
:1002900056CF52CF84B5826084BD85B5856085BD5B
:1002A0008CE987BD82E080936E00789408951F9258
:1002B0000F920FB60F9211248F9381E080930E015D
:1002C00080910C018F5F80930C018A3089F4109229
:1002D0000C0181E080930D0180910A018F5F809372
:1002E0000A01853029F410920A0181E080930B0104
:1002F0008F910F900FBE0F901F9018951092800055
:1003000082E0809381002CE930E0309389002093D3
:10031000880080936F00789408951F920F920FB613
:100320000F9211248F9381E080931301809110012B
:100330008F5F809310018A3089F41092100181E060
:100340008093120180910F018F5F80930F018A309B
:1003500029F410920F0181E0809311018F910F9089
:100360000FBE0F901F9018955058BB27AA270E94C8
:10037000CC010C94E0020E94D20238F00E94D90213
:1003800020F039F49F3F19F426F40C94CF020EF4B8
:10039000E095E7FB0C94C902E92F0E94F10258F3A3
:1003A000BA17620773078407950720F079F4A6F55A
:1003B0000C9413030EF4E0950B2EBA2FA02D0B0115
:1003C000B90190010C01CA01A0011124FF27591B9A
:1003D00099F0593F50F4503E68F11A16F040A22FA0
:1003E000232F342F4427585FF3CF46953795279511
:1003F000A795F0405395C9F77EF41F16BA0B620B10
:10040000730B840BBAF09150A1F0FF0FBB1F661F56
:10041000771F881FC2F70EC0BA0F621F731F841F99
:1004200048F4879577956795B795F7959E3F08F0BF
:10043000B0CF9395880F08F09927EE0F9795879581
:1004400008950E9435020C94E0020E94D90258F0EF
:100450000E94D20240F029F45F3F29F00C94C902B7
:1004600051110C9414030C94CF020E94F10268F312
:100470009923B1F3552391F3951B550BBB27AA275D
:1004800062177307840738F09F5F5F4F220F331F97
:10049000441FAA1FA9F335D00E2E3AF0E0E832D05F
:1004A00091505040E695001CCAF72BD0FE2F29D062
:1004B000660F771F881FBB1F261737074807AB0734
:1004C000B0E809F0BB0B802DBF01FF2793585F4FA9
:1004D0003AF09E3F510578F00C94C9020C94140335
:1004E0005F3FE4F3983ED4F3869577956795B7958B
:1004F000F7959F5FC9F7880F911D9695879597F996
:100500000895E1E0660F771F881FBB1F621773070E
:100510008407BA0720F0621B730B840BBA0BEE1F23
:1005200088F7E09508950E949A026894B1110C949E
:10053000140308950E94F90288F09F5798F0B92F8C
:100540009927B751B0F0E1F0660F771F881F991F08
:100550001AF0BA95C9F714C0B13091F00E94130394
:10056000B1E008950C941303672F782F8827B85FA4
:1005700039F0B93FCCF3869577956795B395D9F760
:100580003EF490958095709561957F4F8F4F9F4F6A
:10059000089597F99F6780E870E060E008959FEF05
:1005A00080EC089500240A9416161706180609060A
:1005B000089500240A9412161306140605060895D9
:1005C000092E0394000C11F4882352F0BB0F40F461
:1005D000BF2B11F460FF04C06F5F7F4F8F4F9F4FA1
:1005E000089557FD9058440F551F59F05F3F71F023
:1005F0004795880F97FB991F61F09F3F79F087958A
:100600000895121613061406551FF2CF4695F1DF12
:1006100008C0161617061806991FF1CF86957105A2
:10062000610508940895E894BB2766277727CB01D6
:0806300097F90895F894FFCF3B
:0A063800640000A5440000A5440082
:00000001FF
