:100000000C9434000C9451000C9451000C94510049
:100010000C9451000C9451000C9451000C9451001C
:100020000C9451000C9451000C9451000C94AD03AD
:100030000C9451000C9451000C9486030C945100C4
:100040000C9451000C9451000C9451000C945100EC
:100050000C9451000C9451000C9451000C945100DC
:100060000C9451000C94510011241FBECFEFD8E026
:10007000DEBFCDBF11E0A0E0B1E0E0EDFBE002C0EB
:1000800005900D92AC30B107D9F721E0ACE0B1E0BA
:1000900001C01D92AE32B207E1F70E9453000C94EA
:1000A000E6050C94000023EC35EF48E25FE3609135
:1000B00008017091090180910A0190910B010E9441
:1000C00046040E94B8046093260170932701809330
:1000D00028019093290116161706180619066CF4C4
:1000E000DC01CB010196A11DB11D809326019093E7
:1000F0002701A0932801B0932901809126019091B6
:100100002701A0912801B0912901BB235CF401973C
:10011000A109B1098093260190932701A09328019A
:10012000B093290123EC35EF48E25FE360910401CD
:100130007091050180910601909107010E9446048B
:100140000E94B80460931A0170931B0180931C01F4
:1001500090931D0116161706180619066CF4DC019B
:10016000CB010196A11DB11D80931A0190931B0133
:10017000A0931C01B0931D0180911A0190911B0165
:10018000A0911C01B0911D01BB235CF40197A10952
:10019000B10980931A0190931B01A0931C01B093A5
:1001A0001D0140900001509001016090020170908B
:1001B0000301C0902601D0902701E0902801F09023
:1001C0002901C701B6010E94F0049B01AC01C301E3
:1001D000B2010E94460420E030E040E05FE30E946C
:1001E000D5030E94B804072E000C880B990B0E94BF
:1001F000F00460931E0170931F018093200190937F
:10020000210180901A0190901B01A0901C01B090D8
:100210001D01C501B4010E94F0049B01AC01C301A2
:10022000B2010E94460420E030E040E05FE30E941B
:10023000D5030E94B804072E000C880B990B0E946E
:10024000F00460932A0170932B0180932C0190930A
:100250002D018C149D04AE04BF042CF0C814D904E5
:10026000EA04FB04F1F5C701B601A50194010E945F
:10027000A505CA01B9010E94F00420E030E040E089
:100280005FE30E94D5030E94B804072E000C880B80
:10029000990B0E94F0049B01AC01609322017093C2
:1002A0002301809324019093250160E070E080E8B1
:1002B0009FE30E94460420E030E040E05FE30E94BC
:1002C000D5030E94B804072E000C880B990B0E94DE
:1002D000F0046093160170931701809318019093B6
:1002E0001901C814D904EA04FB04F4F5C501B401EA
:1002F000A70196010E94A505CA01B9010E94F00458
:1003000020E030E040E05FE30E94D5030E94B804A3
:10031000072E000C880B990B0E94F0049B01AC0186
:10032000609316017093170180931801909319013F
:1003300060E070E080E89FE30E94460420E030E047
:1003400040E05FE30E94D5030E94B804072E000C32
:10035000880B990B0E94F004609322017093230193
:1003600080932401909325018AB18C668AB9C0E0FC
:10037000D0E0B5C1C501B4010E94B8046B017C0195
:1003800020E030E0A901C501B4010E94A0051816C3
:100390000CF0A4C181E0C822DD24EE2480E8F8221C
:1003A000FF2084F491E0C91AD108E108F1088EEF2A
:1003B000C82ADD24DA94ED2CFE2C9FEFC91AD90A45
:1003C000E90AF90AC114D104E104F10409F0BFC03B
:1003D00020E030E040E85FE36091000170910101AE
:1003E00080910201909103010E94D4036093000167
:1003F0007093010180930201909303018091260183
:1004000090912701A0912801B09129011816190691
:100410001A061B060CF45AC072C08FE99FE00197C0
:10042000F1F700C000000F5F1F4FB801012E000C54
:10043000880B990B0E94F00420911E0130911F013E
:1004400040912001509121010E944104882339F1FB
:100450003BC08091260190912701A0912801B09185
:1004600029010197A109B1098093260190932701E1
:10047000A0932801B09329018BB18F7D8BB98BB1EB
:1004800084608BB98BB18B7F8BB98FE99FE001972B
:10049000F1F700C000009FEFE91AF90A02C0E12C51
:1004A000F12CB7010F2C000C880B990B0E94F00463
:1004B0002091220130912301409124015091250186
:1004C0000E94410488232CF2219604C0C0E0D0E0B1
:1004D00000E010E0BE010D2E000C880B990B0E946D
:1004E000F00420911E0130911F0140912001509194
:1004F00021010E94410488230CF48FCF1CC0BB2330
:10050000D4F40196A11DB11D80932601909327017B
:10051000A0932801B09329018BB180628BB98BB174
:1005200084608BB98BB18B7F8BB98FE99FE001978A
:10053000F1F700C00000609100017091010180910D
:100540000201909103010E94B8046B017C0191E0CB
:10055000C916D104E104F10409F01CCF20E030E019
:1005600040E85FE360910001709101018091020118
:10057000909103010E94D4036093000170930101E4
:10058000809302019093030180911A0190911B01C5
:10059000A0911C01B0911D01181619061A061B0620
:1005A0000CF45AC072C08FE99FE00197F1F700C0C8
:1005B00000000F5F1F4FB801012E000C880B990B34
:1005C0000E94F00420912A0130912B0140912C01CE
:1005D00050912D010E944104882339F13BC0809144
:1005E0001A0190911B01A0911C01B0911D0101976E
:1005F000A109B10980931A0190931B01A0931C01DA
:10060000B0931D018BB18F7B8BB98BB188608BB997
:100610008BB1877F8BB98FE99FE00197F1F700C01D
:1006200000009FEFE91AF90A02C0E12CF12CB70192
:100630000F2C000C880B990B0E94F00420911601DE
:100640003091170140911801509119010E94410405
:1006500088232CF2219604C0C0E0D0E000E010E036
:10066000BE010D2E000C880B990B0E94F004209106
:100670002A0130912B0140912C0150912D010E94B3
:10068000410488230CF48FCF1CC0BB23D4F4019603
:10069000A11DB11D80931A0190931B01A0931C0111
:1006A000B0931D018BB180648BB98BB188608BB91D
:1006B0008BB1877F8BB98FE99FE00197F1F700C07D
:1006C0000000609100017091010180910201909100
:1006D00003010E94B8046B017C015CCE2196BE012F
:1006E0000D2E000C880B990B0E94F00480900001E5
:1006F00090900101A0900201B0900301A501940126
:100700000E94410488230CF435CE31CE1F920F9203
:100710000FB60F9211248F9381E080931001809186
:100720000E018F5F80930E018A3089F410920E01C2
:1007300081E080930F0180910C018F5F80930C0109
:10074000853029F410920C0181E080930D018F9186
:100750000F900FBE0F901F9018951F920F920FB61B
:100760000F9211248F9381E08093150180911201E3
:100770008F5F809312018A3089F41092120181E018
:1007800080931401809111018F5F809311018A3051
:1007900029F41092110181E0809313018F910F9041
:1007A0000FBE0F901F9018955058BB27AA270E9484
:1007B000EC030C9466050E94580538F00E945F0512
:1007C00020F039F49F3F19F426F40C9455050EF4EB
:1007D000E095E7FB0C944F05E92F0E94770558F34D
:1007E000BA17620773078407950720F079F4A6F516
:1007F0000C9499050EF4E0950B2EBA2FA02D0B0149
:10080000B90190010C01CA01A0011124FF27591B55
:1008100099F0593F50F4503E68F11A16F040A22F5B
:10082000232F342F4427585FF3CF469537952795CC
:10083000A795F0405395C9F77EF41F16BA0B620BCB
:10084000730B840BBAF09150A1F0FF0FBB1F661F12
:10085000771F881FC2F70EC0BA0F621F731F841F55
:1008600048F4879577956795B795F7959E3F08F07B
:10087000B0CF9395880F08F09927EE0F979587953D
:1008800008950E942B0508F481E008950E945A04FF
:100890000C9466050E945F0558F00E94580540F0D0
:1008A00029F45F3F29F00C944F0551110C949A05DF
:1008B0000C9455050E94770568F39923B1F35523ED
:1008C00091F3951B550BBB27AA2762177307840763
:1008D00038F09F5F5F4F220F331F441FAA1FA9F3F9
:1008E00035D00E2E3AF0E0E832D091505040E695E7
:1008F000001CCAF72BD0FE2F29D0660F771F881F48
:10090000BB1F261737074807AB07B0E809F0BB0B3A
:10091000802DBF01FF2793585F4F3AF09E3F51054E
:1009200078F00C944F050C949A055F3FE4F3983EE1
:10093000D4F3869577956795B795F7959F5FC9F737
:10094000880F911D9695879597F90895E1E0660FB8
:10095000771F881FBB1F621773078407BA0720F031
:10096000621B730B840BBA0BEE1F88F7E09508959A
:100970000E94BF046894B1110C949A0508950E94D6
:100980007F0588F09F5798F0B92F9927B751B0F09D
:10099000E1F0660F771F881F991F1AF0BA95C9F703
:1009A00014C0B13091F00E949905B1E008950C9403
:1009B0009905672F782F8827B85F39F0B93FCCF3B6
:1009C000869577956795B395D9F73EF49095809580
:1009D000709561957F4F8F4F9F4F0895E89409C0A0
:1009E00097FB3EF490958095709561957F4F8F4F62
:1009F0009F4F9923A9F0F92F96E9BB279395F69578
:100A0000879577956795B795F111F8CFFAF4BB0FF5
:100A100011F460FF1BC06F5F7F4F8F4F9F4F16C059
:100A2000882311F096E911C0772321F09EE8872FE3
:100A3000762F05C0662371F096E8862F70E060E09F
:100A40002AF09A95660F771F881FDAF7880F969518
:100A5000879597F90895990F0008550FAA0BE0E8BC
:100A6000FEEF16161706E807F907C0F01216130670
:100A7000E407F50798F0621B730B840B950B39F4B0
:100A80000A2661F0232B242B252B21F408950A2616
:100A900009F4A140A6958FEF811D811D089597F956
:100AA0009F6780E870E060E008959FEF80EC089514
:100AB00000240A941616170618060906089500243D
:100AC0000A9412161306140605060895092E0394B7
:100AD000000C11F4882352F0BB0F40F4BF2B11F42B
:100AE00060FF04C06F5F7F4F8F4F9F4F089557FD8A
:100AF0009058440F551F59F05F3F71F04795880F8C
:100B000097FB991F61F09F3F79F087950895121622
:100B100013061406551FF2CF4695F1DF08C01616CE
:100B200017061806991FF1CF86957105610508947F
:100B30000895E894BB2766277727CB0197F9089596
:100B40000E942B0508F48FEF0895052E97FB1EF4E5
:100B500000940E94BC0557FD07D00E94C40507FC05
:100B600003D04EF40C94BC055095409530952195DA
:100B70003F4F4F4F5F4F08959095809570956195C9
:100B80007F4F8F4F9F4F0895A1E21A2EAA1BBB1BC8
:100B9000FD010DC0AA1FBB1FEE1FFF1FA217B30749
:100BA000E407F50720F0A21BB30BE40BF50B661F5F
:100BB000771F881F991F1A9469F760957095809523
:100BC00090959B01AC01BD01CF010895F894FFCF32
:0C0BD00000401C46000004430000844369
:00000001FF
